{
  "_format": "hh-sol-artifact-1",
  "contractName": "ETHDaddy",
  "sourceName": "contracts/ETHDaddy.sol",
  "abi": [
    {
      "inputs": [
        {
          "internalType": "string",
          "name": "_name",
          "type": "string"
        },
        {
          "internalType": "string",
          "name": "_symbol",
          "type": "string"
        }
      ],
      "stateMutability": "nonpayable",
      "type": "constructor"
    },
    {
      "anonymous": false,
      "inputs": [
        {
          "indexed": true,
          "internalType": "address",
          "name": "owner",
          "type": "address"
        },
        {
          "indexed": true,
          "internalType": "address",
          "name": "approved",
          "type": "address"
        },
        {
          "indexed": true,
          "internalType": "uint256",
          "name": "tokenId",
          "type": "uint256"
        }
      ],
      "name": "Approval",
      "type": "event"
    },
    {
      "anonymous": false,
      "inputs": [
        {
          "indexed": true,
          "internalType": "address",
          "name": "owner",
          "type": "address"
        },
        {
          "indexed": true,
          "internalType": "address",
          "name": "operator",
          "type": "address"
        },
        {
          "indexed": false,
          "internalType": "bool",
          "name": "approved",
          "type": "bool"
        }
      ],
      "name": "ApprovalForAll",
      "type": "event"
    },
    {
      "anonymous": false,
      "inputs": [
        {
          "indexed": true,
          "internalType": "address",
          "name": "from",
          "type": "address"
        },
        {
          "indexed": true,
          "internalType": "address",
          "name": "to",
          "type": "address"
        },
        {
          "indexed": true,
          "internalType": "uint256",
          "name": "tokenId",
          "type": "uint256"
        }
      ],
      "name": "Transfer",
      "type": "event"
    },
    {
      "inputs": [
        {
          "internalType": "address",
          "name": "to",
          "type": "address"
        },
        {
          "internalType": "uint256",
          "name": "tokenId",
          "type": "uint256"
        }
      ],
      "name": "approve",
      "outputs": [],
      "stateMutability": "nonpayable",
      "type": "function"
    },
    {
      "inputs": [
        {
          "internalType": "address",
          "name": "owner",
          "type": "address"
        }
      ],
      "name": "balanceOf",
      "outputs": [
        {
          "internalType": "uint256",
          "name": "",
          "type": "uint256"
        }
      ],
      "stateMutability": "view",
      "type": "function"
    },
    {
      "inputs": [
        {
          "internalType": "uint256",
          "name": "tokenId",
          "type": "uint256"
        }
      ],
      "name": "getApproved",
      "outputs": [
        {
          "internalType": "address",
          "name": "",
          "type": "address"
        }
      ],
      "stateMutability": "view",
      "type": "function"
    },
    {
      "inputs": [],
      "name": "getBalance",
      "outputs": [
        {
          "internalType": "uint256",
          "name": "",
          "type": "uint256"
        }
      ],
      "stateMutability": "view",
      "type": "function"
    },
    {
      "inputs": [
        {
          "internalType": "uint256",
          "name": "_id",
          "type": "uint256"
        }
      ],
      "name": "getDomain",
      "outputs": [
        {
          "components": [
            {
              "internalType": "string",
              "name": "name",
              "type": "string"
            },
            {
              "internalType": "uint256",
              "name": "cost",
              "type": "uint256"
            },
            {
              "internalType": "bool",
              "name": "isOwned",
              "type": "bool"
            }
          ],
          "internalType": "struct ETHDaddy.Domain",
          "name": "",
          "type": "tuple"
        }
      ],
      "stateMutability": "view",
      "type": "function"
    },
    {
      "inputs": [
        {
          "internalType": "address",
          "name": "owner",
          "type": "address"
        },
        {
          "internalType": "address",
          "name": "operator",
          "type": "address"
        }
      ],
      "name": "isApprovedForAll",
      "outputs": [
        {
          "internalType": "bool",
          "name": "",
          "type": "bool"
        }
      ],
      "stateMutability": "view",
      "type": "function"
    },
    {
      "inputs": [
        {
          "internalType": "string",
          "name": "_name",
          "type": "string"
        },
        {
          "internalType": "uint256",
          "name": "_cost",
          "type": "uint256"
        }
      ],
      "name": "list",
      "outputs": [],
      "stateMutability": "nonpayable",
      "type": "function"
    },
    {
      "inputs": [],
      "name": "maxSupply",
      "outputs": [
        {
          "internalType": "uint256",
          "name": "",
          "type": "uint256"
        }
      ],
      "stateMutability": "view",
      "type": "function"
    },
    {
      "inputs": [
        {
          "internalType": "uint256",
          "name": "_id",
          "type": "uint256"
        }
      ],
      "name": "mint",
      "outputs": [],
      "stateMutability": "payable",
      "type": "function"
    },
    {
      "inputs": [],
      "name": "name",
      "outputs": [
        {
          "internalType": "string",
          "name": "",
          "type": "string"
        }
      ],
      "stateMutability": "view",
      "type": "function"
    },
    {
      "inputs": [],
      "name": "owner",
      "outputs": [
        {
          "internalType": "address",
          "name": "",
          "type": "address"
        }
      ],
      "stateMutability": "view",
      "type": "function"
    },
    {
      "inputs": [
        {
          "internalType": "uint256",
          "name": "tokenId",
          "type": "uint256"
        }
      ],
      "name": "ownerOf",
      "outputs": [
        {
          "internalType": "address",
          "name": "",
          "type": "address"
        }
      ],
      "stateMutability": "view",
      "type": "function"
    },
    {
      "inputs": [
        {
          "internalType": "address",
          "name": "from",
          "type": "address"
        },
        {
          "internalType": "address",
          "name": "to",
          "type": "address"
        },
        {
          "internalType": "uint256",
          "name": "tokenId",
          "type": "uint256"
        }
      ],
      "name": "safeTransferFrom",
      "outputs": [],
      "stateMutability": "nonpayable",
      "type": "function"
    },
    {
      "inputs": [
        {
          "internalType": "address",
          "name": "from",
          "type": "address"
        },
        {
          "internalType": "address",
          "name": "to",
          "type": "address"
        },
        {
          "internalType": "uint256",
          "name": "tokenId",
          "type": "uint256"
        },
        {
          "internalType": "bytes",
          "name": "data",
          "type": "bytes"
        }
      ],
      "name": "safeTransferFrom",
      "outputs": [],
      "stateMutability": "nonpayable",
      "type": "function"
    },
    {
      "inputs": [
        {
          "internalType": "address",
          "name": "operator",
          "type": "address"
        },
        {
          "internalType": "bool",
          "name": "approved",
          "type": "bool"
        }
      ],
      "name": "setApprovalForAll",
      "outputs": [],
      "stateMutability": "nonpayable",
      "type": "function"
    },
    {
      "inputs": [
        {
          "internalType": "bytes4",
          "name": "interfaceId",
          "type": "bytes4"
        }
      ],
      "name": "supportsInterface",
      "outputs": [
        {
          "internalType": "bool",
          "name": "",
          "type": "bool"
        }
      ],
      "stateMutability": "view",
      "type": "function"
    },
    {
      "inputs": [],
      "name": "symbol",
      "outputs": [
        {
          "internalType": "string",
          "name": "",
          "type": "string"
        }
      ],
      "stateMutability": "view",
      "type": "function"
    },
    {
      "inputs": [
        {
          "internalType": "uint256",
          "name": "tokenId",
          "type": "uint256"
        }
      ],
      "name": "tokenURI",
      "outputs": [
        {
          "internalType": "string",
          "name": "",
          "type": "string"
        }
      ],
      "stateMutability": "view",
      "type": "function"
    },
    {
      "inputs": [],
      "name": "totalSupply",
      "outputs": [
        {
          "internalType": "uint256",
          "name": "",
          "type": "uint256"
        }
      ],
      "stateMutability": "view",
      "type": "function"
    },
    {
      "inputs": [
        {
          "internalType": "address",
          "name": "from",
          "type": "address"
        },
        {
          "internalType": "address",
          "name": "to",
          "type": "address"
        },
        {
          "internalType": "uint256",
          "name": "tokenId",
          "type": "uint256"
        }
      ],
      "name": "transferFrom",
      "outputs": [],
      "stateMutability": "nonpayable",
      "type": "function"
    },
    {
      "inputs": [],
      "name": "withdraw",
      "outputs": [],
      "stateMutability": "nonpayable",
      "type": "function"
    }
  ],
  "bytecode": "0x60806040523480156200001157600080fd5b50604051620035d4380380620035d483398181016040528101906200003791906200023b565b818181600090816200004a91906200050b565b5080600190816200005c91906200050b565b50505033600860006101000a81548173ffffffffffffffffffffffffffffffffffffffff021916908373ffffffffffffffffffffffffffffffffffffffff1602179055505050620005f2565b6000604051905090565b600080fd5b600080fd5b600080fd5b600080fd5b6000601f19601f8301169050919050565b7f4e487b7100000000000000000000000000000000000000000000000000000000600052604160045260246000fd5b6200011182620000c6565b810181811067ffffffffffffffff82111715620001335762000132620000d7565b5b80604052505050565b600062000148620000a8565b905062000156828262000106565b919050565b600067ffffffffffffffff821115620001795762000178620000d7565b5b6200018482620000c6565b9050602081019050919050565b60005b83811015620001b157808201518184015260208101905062000194565b60008484015250505050565b6000620001d4620001ce846200015b565b6200013c565b905082815260208101848484011115620001f357620001f2620000c1565b5b6200020084828562000191565b509392505050565b600082601f83011262000220576200021f620000bc565b5b815162000232848260208601620001bd565b91505092915050565b60008060408385031215620002555762000254620000b2565b5b600083015167ffffffffffffffff811115620002765762000275620000b7565b5b620002848582860162000208565b925050602083015167ffffffffffffffff811115620002a857620002a7620000b7565b5b620002b68582860162000208565b9150509250929050565b600081519050919050565b7f4e487b7100000000000000000000000000000000000000000000000000000000600052602260045260246000fd5b600060028204905060018216806200031357607f821691505b602082108103620003295762000328620002cb565b5b50919050565b60008190508160005260206000209050919050565b60006020601f8301049050919050565b600082821b905092915050565b600060088302620003937fffffffffffffffffffffffffffffffffffffffffffffffffffffffffffffffff8262000354565b6200039f868362000354565b95508019841693508086168417925050509392505050565b6000819050919050565b6000819050919050565b6000620003ec620003e6620003e084620003b7565b620003c1565b620003b7565b9050919050565b6000819050919050565b6200040883620003cb565b620004206200041782620003f3565b84845462000361565b825550505050565b600090565b6200043762000428565b62000444818484620003fd565b505050565b5b818110156200046c57620004606000826200042d565b6001810190506200044a565b5050565b601f821115620004bb5762000485816200032f565b620004908462000344565b81016020851015620004a0578190505b620004b8620004af8562000344565b83018262000449565b50505b505050565b600082821c905092915050565b6000620004e060001984600802620004c0565b1980831691505092915050565b6000620004fb8383620004cd565b9150826002028217905092915050565b6200051682620002c0565b67ffffffffffffffff811115620005325762000531620000d7565b5b6200053e8254620002fa565b6200054b82828562000470565b600060209050601f8311600181146200058357600084156200056e578287015190505b6200057a8582620004ed565b865550620005ea565b601f19841662000593866200032f565b60005b82811015620005bd5784890151825560018201915060208501945060208101905062000596565b86831015620005dd5784890151620005d9601f891682620004cd565b8355505b6001600288020188555050505b505050505050565b612fd280620006026000396000f3fe60806040526004361061012a5760003560e01c80634a878dfa116100ab578063a0712d681161006f578063a0712d68146103f2578063a22cb4651461040e578063b88d4fde14610437578063c87b56dd14610460578063d5abeb011461049d578063e985e9c5146104c85761012a565b80634a878dfa146102f95780636352211e1461032257806370a082311461035f5780638da5cb5b1461039c57806395d89b41146103c75761012a565b806318160ddd116100f257806318160ddd146102285780631a7a98e21461025357806323b872dd146102905780633ccfd60b146102b957806342842e0e146102d05761012a565b806301ffc9a71461012f57806306fdde031461016c578063081812fc14610197578063095ea7b3146101d457806312065fe0146101fd575b600080fd5b34801561013b57600080fd5b5061015660048036038101906101519190611dbc565b610505565b6040516101639190611e04565b60405180910390f35b34801561017857600080fd5b506101816105e7565b60405161018e9190611eaf565b60405180910390f35b3480156101a357600080fd5b506101be60048036038101906101b99190611f07565b610679565b6040516101cb9190611f75565b60405180910390f35b3480156101e057600080fd5b506101fb60048036038101906101f69190611fbc565b6106bf565b005b34801561020957600080fd5b506102126107d6565b60405161021f919061200b565b60405180910390f35b34801561023457600080fd5b5061023d6107de565b60405161024a919061200b565b60405180910390f35b34801561025f57600080fd5b5061027a60048036038101906102759190611f07565b6107e4565b60405161028791906120de565b60405180910390f35b34801561029c57600080fd5b506102b760048036038101906102b29190612100565b6108c8565b005b3480156102c557600080fd5b506102ce610928565b005b3480156102dc57600080fd5b506102f760048036038101906102f29190612100565b610a1d565b005b34801561030557600080fd5b50610320600480360381019061031b9190612288565b610a3d565b005b34801561032e57600080fd5b5061034960048036038101906103449190611f07565b610b29565b6040516103569190611f75565b60405180910390f35b34801561036b57600080fd5b50610386600480360381019061038191906122e4565b610baf565b604051610393919061200b565b60405180910390f35b3480156103a857600080fd5b506103b1610c66565b6040516103be9190611f75565b60405180910390f35b3480156103d357600080fd5b506103dc610c8c565b6040516103e99190611eaf565b60405180910390f35b61040c60048036038101906104079190611f07565b610d1e565b005b34801561041a57600080fd5b506104356004803603810190610430919061233d565b610de5565b005b34801561044357600080fd5b5061045e6004803603810190610459919061241e565b610dfb565b005b34801561046c57600080fd5b5061048760048036038101906104829190611f07565b610e5d565b6040516104949190611eaf565b60405180910390f35b3480156104a957600080fd5b506104b2610ec5565b6040516104bf919061200b565b60405180910390f35b3480156104d457600080fd5b506104ef60048036038101906104ea91906124a1565b610ecb565b6040516104fc9190611e04565b60405180910390f35b60007f80ac58cd000000000000000000000000000000000000000000000000000000007bffffffffffffffffffffffffffffffffffffffffffffffffffffffff1916827bffffffffffffffffffffffffffffffffffffffffffffffffffffffff191614806105d057507f5b5e139f000000000000000000000000000000000000000000000000000000007bffffffffffffffffffffffffffffffffffffffffffffffffffffffff1916827bffffffffffffffffffffffffffffffffffffffffffffffffffffffff1916145b806105e057506105df82610f5f565b5b9050919050565b6060600080546105f690612510565b80601f016020809104026020016040519081016040528092919081815260200182805461062290612510565b801561066f5780601f106106445761010080835404028352916020019161066f565b820191906000526020600020905b81548152906001019060200180831161065257829003601f168201915b5050505050905090565b600061068482610fc9565b6004600083815260200190815260200160002060009054906101000a900473ffffffffffffffffffffffffffffffffffffffff169050919050565b60006106ca82610b29565b90508073ffffffffffffffffffffffffffffffffffffffff168373ffffffffffffffffffffffffffffffffffffffff160361073a576040517f08c379a0000000000000000000000000000000000000000000000000000000008152600401610731906125b3565b60405180910390fd5b8073ffffffffffffffffffffffffffffffffffffffff16610759611014565b73ffffffffffffffffffffffffffffffffffffffff161480610788575061078781610782611014565b610ecb565b5b6107c7576040517f08c379a00000000000000000000000000000000000000000000000000000000081526004016107be90612645565b60405180910390fd5b6107d1838361101c565b505050565b600047905090565b60075481565b6107ec611d2d565b6009600083815260200190815260200160002060405180606001604052908160008201805461081a90612510565b80601f016020809104026020016040519081016040528092919081815260200182805461084690612510565b80156108935780601f1061086857610100808354040283529160200191610893565b820191906000526020600020905b81548152906001019060200180831161087657829003601f168201915b50505050508152602001600182015481526020016002820160009054906101000a900460ff1615151515815250509050919050565b6108d96108d3611014565b826110d5565b610918576040517f08c379a000000000000000000000000000000000000000000000000000000000815260040161090f906126d7565b60405180910390fd5b61092383838361116a565b505050565b600860009054906101000a900473ffffffffffffffffffffffffffffffffffffffff1673ffffffffffffffffffffffffffffffffffffffff163373ffffffffffffffffffffffffffffffffffffffff161461098257600080fd5b6000600860009054906101000a900473ffffffffffffffffffffffffffffffffffffffff1673ffffffffffffffffffffffffffffffffffffffff16476040516109ca90612728565b60006040518083038185875af1925050503d8060008114610a07576040519150601f19603f3d011682016040523d82523d6000602084013e610a0c565b606091505b5050905080610a1a57600080fd5b50565b610a3883838360405180602001604052806000815250610dfb565b505050565b600860009054906101000a900473ffffffffffffffffffffffffffffffffffffffff1673ffffffffffffffffffffffffffffffffffffffff163373ffffffffffffffffffffffffffffffffffffffff1614610a9757600080fd5b60066000815480929190610aaa9061276c565b91905055506040518060600160405280838152602001828152602001600015158152506009600060065481526020019081526020016000206000820151816000019081610af79190612960565b506020820151816001015560408201518160020160006101000a81548160ff0219169083151502179055509050505050565b600080610b3583611463565b9050600073ffffffffffffffffffffffffffffffffffffffff168173ffffffffffffffffffffffffffffffffffffffff1603610ba6576040517f08c379a0000000000000000000000000000000000000000000000000000000008152600401610b9d90612a7e565b60405180910390fd5b80915050919050565b60008073ffffffffffffffffffffffffffffffffffffffff168273ffffffffffffffffffffffffffffffffffffffff1603610c1f576040517f08c379a0000000000000000000000000000000000000000000000000000000008152600401610c1690612b10565b60405180910390fd5b600360008373ffffffffffffffffffffffffffffffffffffffff1673ffffffffffffffffffffffffffffffffffffffff168152602001908152602001600020549050919050565b600860009054906101000a900473ffffffffffffffffffffffffffffffffffffffff1681565b606060018054610c9b90612510565b80601f0160208091040260200160405190810160405280929190818152602001828054610cc790612510565b8015610d145780601f10610ce957610100808354040283529160200191610d14565b820191906000526020600020905b815481529060010190602001808311610cf757829003601f168201915b5050505050905090565b60008103610d2b57600080fd5b600654811115610d3a57600080fd5b600015156009600083815260200190815260200160002060020160009054906101000a900460ff16151514610d6e57600080fd5b6009600082815260200190815260200160002060010154341015610d9157600080fd5b60016009600083815260200190815260200160002060020160006101000a81548160ff02191690831515021790555060076000815480929190610dd39061276c565b9190505550610de233826114a0565b50565b610df7610df0611014565b83836114be565b5050565b610e0c610e06611014565b836110d5565b610e4b576040517f08c379a0000000000000000000000000000000000000000000000000000000008152600401610e42906126d7565b60405180910390fd5b610e578484848461162a565b50505050565b6060610e6882610fc9565b6000610e72611686565b90506000815111610e925760405180602001604052806000815250610ebd565b80610e9c8461169d565b604051602001610ead929190612b6c565b6040516020818303038152906040525b915050919050565b60065481565b6000600560008473ffffffffffffffffffffffffffffffffffffffff1673ffffffffffffffffffffffffffffffffffffffff16815260200190815260200160002060008373ffffffffffffffffffffffffffffffffffffffff1673ffffffffffffffffffffffffffffffffffffffff16815260200190815260200160002060009054906101000a900460ff16905092915050565b60007f01ffc9a7000000000000000000000000000000000000000000000000000000007bffffffffffffffffffffffffffffffffffffffffffffffffffffffff1916827bffffffffffffffffffffffffffffffffffffffffffffffffffffffff1916149050919050565b610fd28161176b565b611011576040517f08c379a000000000000000000000000000000000000000000000000000000000815260040161100890612a7e565b60405180910390fd5b50565b600033905090565b816004600083815260200190815260200160002060006101000a81548173ffffffffffffffffffffffffffffffffffffffff021916908373ffffffffffffffffffffffffffffffffffffffff160217905550808273ffffffffffffffffffffffffffffffffffffffff1661108f83610b29565b73ffffffffffffffffffffffffffffffffffffffff167f8c5be1e5ebec7d5bd14f71427d1e84f3dd0314c0f7b2291e5b200ac8c7c3b92560405160405180910390a45050565b6000806110e183610b29565b90508073ffffffffffffffffffffffffffffffffffffffff168473ffffffffffffffffffffffffffffffffffffffff16148061112357506111228185610ecb565b5b8061116157508373ffffffffffffffffffffffffffffffffffffffff1661114984610679565b73ffffffffffffffffffffffffffffffffffffffff16145b91505092915050565b8273ffffffffffffffffffffffffffffffffffffffff1661118a82610b29565b73ffffffffffffffffffffffffffffffffffffffff16146111e0576040517f08c379a00000000000000000000000000000000000000000000000000000000081526004016111d790612c02565b60405180910390fd5b600073ffffffffffffffffffffffffffffffffffffffff168273ffffffffffffffffffffffffffffffffffffffff160361124f576040517f08c379a000000000000000000000000000000000000000000000000000000000815260040161124690612c94565b60405180910390fd5b61125c83838360016117ac565b8273ffffffffffffffffffffffffffffffffffffffff1661127c82610b29565b73ffffffffffffffffffffffffffffffffffffffff16146112d2576040517f08c379a00000000000000000000000000000000000000000000000000000000081526004016112c990612c02565b60405180910390fd5b6004600082815260200190815260200160002060006101000a81549073ffffffffffffffffffffffffffffffffffffffff02191690556001600360008573ffffffffffffffffffffffffffffffffffffffff1673ffffffffffffffffffffffffffffffffffffffff168152602001908152602001600020600082825403925050819055506001600360008473ffffffffffffffffffffffffffffffffffffffff1673ffffffffffffffffffffffffffffffffffffffff16815260200190815260200160002060008282540192505081905550816002600083815260200190815260200160002060006101000a81548173ffffffffffffffffffffffffffffffffffffffff021916908373ffffffffffffffffffffffffffffffffffffffff160217905550808273ffffffffffffffffffffffffffffffffffffffff168473ffffffffffffffffffffffffffffffffffffffff167fddf252ad1be2c89b69c2b068fc378daa952ba7f163c4a11628f55a4df523b3ef60405160405180910390a461145e83838360016117b2565b505050565b60006002600083815260200190815260200160002060009054906101000a900473ffffffffffffffffffffffffffffffffffffffff169050919050565b6114ba8282604051806020016040528060008152506117b8565b5050565b8173ffffffffffffffffffffffffffffffffffffffff168373ffffffffffffffffffffffffffffffffffffffff160361152c576040517f08c379a000000000000000000000000000000000000000000000000000000000815260040161152390612d00565b60405180910390fd5b80600560008573ffffffffffffffffffffffffffffffffffffffff1673ffffffffffffffffffffffffffffffffffffffff16815260200190815260200160002060008473ffffffffffffffffffffffffffffffffffffffff1673ffffffffffffffffffffffffffffffffffffffff16815260200190815260200160002060006101000a81548160ff0219169083151502179055508173ffffffffffffffffffffffffffffffffffffffff168373ffffffffffffffffffffffffffffffffffffffff167f17307eab39ab6107e8899845ad3d59bd9653f200f220920489ca2b5937696c318360405161161d9190611e04565b60405180910390a3505050565b61163584848461116a565b61164184848484611813565b611680576040517f08c379a000000000000000000000000000000000000000000000000000000000815260040161167790612d92565b60405180910390fd5b50505050565b606060405180602001604052806000815250905090565b6060600060016116ac8461199a565b01905060008167ffffffffffffffff8111156116cb576116ca61215d565b5b6040519080825280601f01601f1916602001820160405280156116fd5781602001600182028036833780820191505090505b509050600082602001820190505b600115611760578080600190039150507f3031323334353637383961626364656600000000000000000000000000000000600a86061a8153600a858161175457611753612db2565b5b0494506000850361170b575b819350505050919050565b60008073ffffffffffffffffffffffffffffffffffffffff1661178d83611463565b73ffffffffffffffffffffffffffffffffffffffff1614159050919050565b50505050565b50505050565b6117c28383611aed565b6117cf6000848484611813565b61180e576040517f08c379a000000000000000000000000000000000000000000000000000000000815260040161180590612d92565b60405180910390fd5b505050565b60006118348473ffffffffffffffffffffffffffffffffffffffff16611d0a565b1561198d578373ffffffffffffffffffffffffffffffffffffffff1663150b7a0261185d611014565b8786866040518563ffffffff1660e01b815260040161187f9493929190612e36565b6020604051808303816000875af19250505080156118bb57506040513d601f19601f820116820180604052508101906118b89190612e97565b60015b61193d573d80600081146118eb576040519150601f19603f3d011682016040523d82523d6000602084013e6118f0565b606091505b506000815103611935576040517f08c379a000000000000000000000000000000000000000000000000000000000815260040161192c90612d92565b60405180910390fd5b805181602001fd5b63150b7a0260e01b7bffffffffffffffffffffffffffffffffffffffffffffffffffffffff1916817bffffffffffffffffffffffffffffffffffffffffffffffffffffffff191614915050611992565b600190505b949350505050565b600080600090507a184f03e93ff9f4daa797ed6e38ed64bf6a1f01000000000000000083106119f8577a184f03e93ff9f4daa797ed6e38ed64bf6a1f01000000000000000083816119ee576119ed612db2565b5b0492506040810190505b6d04ee2d6d415b85acef81000000008310611a35576d04ee2d6d415b85acef81000000008381611a2b57611a2a612db2565b5b0492506020810190505b662386f26fc100008310611a6457662386f26fc100008381611a5a57611a59612db2565b5b0492506010810190505b6305f5e1008310611a8d576305f5e1008381611a8357611a82612db2565b5b0492506008810190505b6127108310611ab2576127108381611aa857611aa7612db2565b5b0492506004810190505b60648310611ad55760648381611acb57611aca612db2565b5b0492506002810190505b600a8310611ae4576001810190505b80915050919050565b600073ffffffffffffffffffffffffffffffffffffffff168273ffffffffffffffffffffffffffffffffffffffff1603611b5c576040517f08c379a0000000000000000000000000000000000000000000000000000000008152600401611b5390612f10565b60405180910390fd5b611b658161176b565b15611ba5576040517f08c379a0000000000000000000000000000000000000000000000000000000008152600401611b9c90612f7c565b60405180910390fd5b611bb36000838360016117ac565b611bbc8161176b565b15611bfc576040517f08c379a0000000000000000000000000000000000000000000000000000000008152600401611bf390612f7c565b60405180910390fd5b6001600360008473ffffffffffffffffffffffffffffffffffffffff1673ffffffffffffffffffffffffffffffffffffffff16815260200190815260200160002060008282540192505081905550816002600083815260200190815260200160002060006101000a81548173ffffffffffffffffffffffffffffffffffffffff021916908373ffffffffffffffffffffffffffffffffffffffff160217905550808273ffffffffffffffffffffffffffffffffffffffff16600073ffffffffffffffffffffffffffffffffffffffff167fddf252ad1be2c89b69c2b068fc378daa952ba7f163c4a11628f55a4df523b3ef60405160405180910390a4611d066000838360016117b2565b5050565b6000808273ffffffffffffffffffffffffffffffffffffffff163b119050919050565b604051806060016040528060608152602001600081526020016000151581525090565b6000604051905090565b600080fd5b600080fd5b60007fffffffff0000000000000000000000000000000000000000000000000000000082169050919050565b611d9981611d64565b8114611da457600080fd5b50565b600081359050611db681611d90565b92915050565b600060208284031215611dd257611dd1611d5a565b5b6000611de084828501611da7565b91505092915050565b60008115159050919050565b611dfe81611de9565b82525050565b6000602082019050611e196000830184611df5565b92915050565b600081519050919050565b600082825260208201905092915050565b60005b83811015611e59578082015181840152602081019050611e3e565b60008484015250505050565b6000601f19601f8301169050919050565b6000611e8182611e1f565b611e8b8185611e2a565b9350611e9b818560208601611e3b565b611ea481611e65565b840191505092915050565b60006020820190508181036000830152611ec98184611e76565b905092915050565b6000819050919050565b611ee481611ed1565b8114611eef57600080fd5b50565b600081359050611f0181611edb565b92915050565b600060208284031215611f1d57611f1c611d5a565b5b6000611f2b84828501611ef2565b91505092915050565b600073ffffffffffffffffffffffffffffffffffffffff82169050919050565b6000611f5f82611f34565b9050919050565b611f6f81611f54565b82525050565b6000602082019050611f8a6000830184611f66565b92915050565b611f9981611f54565b8114611fa457600080fd5b50565b600081359050611fb681611f90565b92915050565b60008060408385031215611fd357611fd2611d5a565b5b6000611fe185828601611fa7565b9250506020611ff285828601611ef2565b9150509250929050565b61200581611ed1565b82525050565b60006020820190506120206000830184611ffc565b92915050565b600082825260208201905092915050565b600061204282611e1f565b61204c8185612026565b935061205c818560208601611e3b565b61206581611e65565b840191505092915050565b61207981611ed1565b82525050565b61208881611de9565b82525050565b600060608301600083015184820360008601526120ab8282612037565b91505060208301516120c06020860182612070565b5060408301516120d3604086018261207f565b508091505092915050565b600060208201905081810360008301526120f8818461208e565b905092915050565b60008060006060848603121561211957612118611d5a565b5b600061212786828701611fa7565b935050602061213886828701611fa7565b925050604061214986828701611ef2565b9150509250925092565b600080fd5b600080fd5b7f4e487b7100000000000000000000000000000000000000000000000000000000600052604160045260246000fd5b61219582611e65565b810181811067ffffffffffffffff821117156121b4576121b361215d565b5b80604052505050565b60006121c7611d50565b90506121d3828261218c565b919050565b600067ffffffffffffffff8211156121f3576121f261215d565b5b6121fc82611e65565b9050602081019050919050565b82818337600083830152505050565b600061222b612226846121d8565b6121bd565b90508281526020810184848401111561224757612246612158565b5b612252848285612209565b509392505050565b600082601f83011261226f5761226e612153565b5b813561227f848260208601612218565b91505092915050565b6000806040838503121561229f5761229e611d5a565b5b600083013567ffffffffffffffff8111156122bd576122bc611d5f565b5b6122c98582860161225a565b92505060206122da85828601611ef2565b9150509250929050565b6000602082840312156122fa576122f9611d5a565b5b600061230884828501611fa7565b91505092915050565b61231a81611de9565b811461232557600080fd5b50565b60008135905061233781612311565b92915050565b6000806040838503121561235457612353611d5a565b5b600061236285828601611fa7565b925050602061237385828601612328565b9150509250929050565b600067ffffffffffffffff8211156123985761239761215d565b5b6123a182611e65565b9050602081019050919050565b60006123c16123bc8461237d565b6121bd565b9050828152602081018484840111156123dd576123dc612158565b5b6123e8848285612209565b509392505050565b600082601f83011261240557612404612153565b5b81356124158482602086016123ae565b91505092915050565b6000806000806080858703121561243857612437611d5a565b5b600061244687828801611fa7565b945050602061245787828801611fa7565b935050604061246887828801611ef2565b925050606085013567ffffffffffffffff81111561248957612488611d5f565b5b612495878288016123f0565b91505092959194509250565b600080604083850312156124b8576124b7611d5a565b5b60006124c685828601611fa7565b92505060206124d785828601611fa7565b9150509250929050565b7f4e487b7100000000000000000000000000000000000000000000000000000000600052602260045260246000fd5b6000600282049050600182168061252857607f821691505b60208210810361253b5761253a6124e1565b5b50919050565b7f4552433732313a20617070726f76616c20746f2063757272656e74206f776e6560008201527f7200000000000000000000000000000000000000000000000000000000000000602082015250565b600061259d602183611e2a565b91506125a882612541565b604082019050919050565b600060208201905081810360008301526125cc81612590565b9050919050565b7f4552433732313a20617070726f76652063616c6c6572206973206e6f7420746f60008201527f6b656e206f776e6572206f7220617070726f76656420666f7220616c6c000000602082015250565b600061262f603d83611e2a565b915061263a826125d3565b604082019050919050565b6000602082019050818103600083015261265e81612622565b9050919050565b7f4552433732313a2063616c6c6572206973206e6f7420746f6b656e206f776e6560008201527f72206f7220617070726f76656400000000000000000000000000000000000000602082015250565b60006126c1602d83611e2a565b91506126cc82612665565b604082019050919050565b600060208201905081810360008301526126f0816126b4565b9050919050565b600081905092915050565b50565b60006127126000836126f7565b915061271d82612702565b600082019050919050565b600061273382612705565b9150819050919050565b7f4e487b7100000000000000000000000000000000000000000000000000000000600052601160045260246000fd5b600061277782611ed1565b91507fffffffffffffffffffffffffffffffffffffffffffffffffffffffffffffffff82036127a9576127a861273d565b5b600182019050919050565b60008190508160005260206000209050919050565b60006020601f8301049050919050565b600082821b905092915050565b6000600883026128167fffffffffffffffffffffffffffffffffffffffffffffffffffffffffffffffff826127d9565b61282086836127d9565b95508019841693508086168417925050509392505050565b6000819050919050565b600061285d61285861285384611ed1565b612838565b611ed1565b9050919050565b6000819050919050565b61287783612842565b61288b61288382612864565b8484546127e6565b825550505050565b600090565b6128a0612893565b6128ab81848461286e565b505050565b5b818110156128cf576128c4600082612898565b6001810190506128b1565b5050565b601f821115612914576128e5816127b4565b6128ee846127c9565b810160208510156128fd578190505b612911612909856127c9565b8301826128b0565b50505b505050565b600082821c905092915050565b600061293760001984600802612919565b1980831691505092915050565b60006129508383612926565b9150826002028217905092915050565b61296982611e1f565b67ffffffffffffffff8111156129825761298161215d565b5b61298c8254612510565b6129978282856128d3565b600060209050601f8311600181146129ca57600084156129b8578287015190505b6129c28582612944565b865550612a2a565b601f1984166129d8866127b4565b60005b82811015612a00578489015182556001820191506020850194506020810190506129db565b86831015612a1d5784890151612a19601f891682612926565b8355505b6001600288020188555050505b505050505050565b7f4552433732313a20696e76616c696420746f6b656e2049440000000000000000600082015250565b6000612a68601883611e2a565b9150612a7382612a32565b602082019050919050565b60006020820190508181036000830152612a9781612a5b565b9050919050565b7f4552433732313a2061646472657373207a65726f206973206e6f74206120766160008201527f6c6964206f776e65720000000000000000000000000000000000000000000000602082015250565b6000612afa602983611e2a565b9150612b0582612a9e565b604082019050919050565b60006020820190508181036000830152612b2981612aed565b9050919050565b600081905092915050565b6000612b4682611e1f565b612b508185612b30565b9350612b60818560208601611e3b565b80840191505092915050565b6000612b788285612b3b565b9150612b848284612b3b565b91508190509392505050565b7f4552433732313a207472616e736665722066726f6d20696e636f72726563742060008201527f6f776e6572000000000000000000000000000000000000000000000000000000602082015250565b6000612bec602583611e2a565b9150612bf782612b90565b604082019050919050565b60006020820190508181036000830152612c1b81612bdf565b9050919050565b7f4552433732313a207472616e7366657220746f20746865207a65726f2061646460008201527f7265737300000000000000000000000000000000000000000000000000000000602082015250565b6000612c7e602483611e2a565b9150612c8982612c22565b604082019050919050565b60006020820190508181036000830152612cad81612c71565b9050919050565b7f4552433732313a20617070726f766520746f2063616c6c657200000000000000600082015250565b6000612cea601983611e2a565b9150612cf582612cb4565b602082019050919050565b60006020820190508181036000830152612d1981612cdd565b9050919050565b7f4552433732313a207472616e7366657220746f206e6f6e20455243373231526560008201527f63656976657220696d706c656d656e7465720000000000000000000000000000602082015250565b6000612d7c603283611e2a565b9150612d8782612d20565b604082019050919050565b60006020820190508181036000830152612dab81612d6f565b9050919050565b7f4e487b7100000000000000000000000000000000000000000000000000000000600052601260045260246000fd5b600081519050919050565b600082825260208201905092915050565b6000612e0882612de1565b612e128185612dec565b9350612e22818560208601611e3b565b612e2b81611e65565b840191505092915050565b6000608082019050612e4b6000830187611f66565b612e586020830186611f66565b612e656040830185611ffc565b8181036060830152612e778184612dfd565b905095945050505050565b600081519050612e9181611d90565b92915050565b600060208284031215612ead57612eac611d5a565b5b6000612ebb84828501612e82565b91505092915050565b7f4552433732313a206d696e7420746f20746865207a65726f2061646472657373600082015250565b6000612efa602083611e2a565b9150612f0582612ec4565b602082019050919050565b60006020820190508181036000830152612f2981612eed565b9050919050565b7f4552433732313a20746f6b656e20616c7265616479206d696e74656400000000600082015250565b6000612f66601c83611e2a565b9150612f7182612f30565b602082019050919050565b60006020820190508181036000830152612f9581612f59565b905091905056fea264697066735822122074c20c85b54e3f0a1b04f55db6f2e767cae493f58c64cd9c536834593b5766cf64736f6c63430008140033",
  "linkReferences": {},
  "deployedLinkReferences": {}
}